{
  "contractName": "Transport",
  "abi": [
    {
      "anonymous": false,
      "inputs": [
        {
          "indexed": false,
          "internalType": "uint256",
          "name": "cin",
          "type": "uint256"
        },
        {
          "indexed": false,
          "internalType": "string",
          "name": "nom",
          "type": "string"
        },
        {
          "indexed": false,
          "internalType": "string",
          "name": "prenom",
          "type": "string"
        },
        {
          "indexed": false,
          "internalType": "uint256",
          "name": "tel",
          "type": "uint256"
        },
        {
          "indexed": false,
          "internalType": "uint256",
          "name": "vehicle_number",
          "type": "uint256"
        },
        {
          "indexed": false,
          "internalType": "uint256",
          "name": "score",
          "type": "uint256"
        }
      ],
      "name": "ajout",
      "type": "event"
    },
    {
      "constant": true,
      "inputs": [],
      "name": "Count",
      "outputs": [
        {
          "internalType": "uint256",
          "name": "",
          "type": "uint256"
        }
      ],
      "payable": false,
      "stateMutability": "view",
      "type": "function"
    },
    {
      "constant": true,
      "inputs": [
        {
          "internalType": "uint256",
          "name": "",
          "type": "uint256"
        }
      ],
      "name": "products",
      "outputs": [
        {
          "internalType": "uint256",
          "name": "id",
          "type": "uint256"
        },
        {
          "internalType": "uint256",
          "name": "adress",
          "type": "uint256"
        },
        {
          "internalType": "string",
          "name": "name",
          "type": "string"
        },
        {
          "internalType": "uint256",
          "name": "poids",
          "type": "uint256"
        },
        {
          "internalType": "uint256",
          "name": "temperature",
          "type": "uint256"
        },
        {
          "internalType": "uint256",
          "name": "distance",
          "type": "uint256"
        }
      ],
      "payable": false,
      "stateMutability": "view",
      "type": "function"
    },
    {
      "constant": true,
      "inputs": [
        {
          "internalType": "uint256",
          "name": "",
          "type": "uint256"
        }
      ],
      "name": "transporteurs",
      "outputs": [
        {
          "internalType": "uint256",
          "name": "cin",
          "type": "uint256"
        },
        {
          "internalType": "string",
          "name": "nom",
          "type": "string"
        },
        {
          "internalType": "string",
          "name": "prenom",
          "type": "string"
        },
        {
          "internalType": "uint256",
          "name": "tel",
          "type": "uint256"
        },
        {
          "internalType": "uint256",
          "name": "vehicle_number",
          "type": "uint256"
        },
        {
          "internalType": "uint256",
          "name": "score",
          "type": "uint256"
        }
      ],
      "payable": false,
      "stateMutability": "view",
      "type": "function"
    },
    {
      "constant": false,
      "inputs": [
        {
          "internalType": "uint256",
          "name": "cin",
          "type": "uint256"
        },
        {
          "internalType": "string",
          "name": "nom",
          "type": "string"
        },
        {
          "internalType": "string",
          "name": "prenom",
          "type": "string"
        },
        {
          "internalType": "uint256",
          "name": "tel",
          "type": "uint256"
        },
        {
          "internalType": "uint256",
          "name": "vehicle_number",
          "type": "uint256"
        },
        {
          "internalType": "uint256",
          "name": "score",
          "type": "uint256"
        }
      ],
      "name": "ajout_transporteur",
      "outputs": [],
      "payable": false,
      "stateMutability": "nonpayable",
      "type": "function"
    },
    {
      "constant": false,
      "inputs": [],
      "name": "get_count",
      "outputs": [
        {
          "internalType": "uint256",
          "name": "",
          "type": "uint256"
        }
      ],
      "payable": false,
      "stateMutability": "nonpayable",
      "type": "function"
    },
    {
      "constant": false,
      "inputs": [
        {
          "internalType": "uint256",
          "name": "a",
          "type": "uint256"
        }
      ],
      "name": "set_count",
      "outputs": [],
      "payable": false,
      "stateMutability": "nonpayable",
      "type": "function"
    },
    {
      "constant": false,
      "inputs": [
        {
          "internalType": "uint256",
          "name": "id",
          "type": "uint256"
        },
        {
          "internalType": "uint256",
          "name": "ad",
          "type": "uint256"
        },
        {
          "internalType": "string",
          "name": "name",
          "type": "string"
        },
        {
          "internalType": "uint256",
          "name": "poids",
          "type": "uint256"
        },
        {
          "internalType": "uint256",
          "name": "temperature",
          "type": "uint256"
        },
        {
          "internalType": "uint256",
          "name": "distance",
          "type": "uint256"
        }
      ],
      "name": "tranporter",
      "outputs": [],
      "payable": false,
      "stateMutability": "nonpayable",
      "type": "function"
    }
  ],
  "bytecode": "0x608060405234801561001057600080fd5b50610b7a806100206000396000f3fe608060405234801561001057600080fd5b506004361061007d5760003560e01c806393a8333e1161005b57806393a8333e1461036857806398844f9e14610386578063e7278e7f14610500578063f60170c21461051e5761007d565b8063018edfb6146100825780637acc0b201461016f5780638427608314610239575b600080fd5b61016d600480360360c081101561009857600080fd5b810190808035906020019092919080359060200190929190803590602001906401000000008111156100c957600080fd5b8201836020820111156100db57600080fd5b803590602001918460018302840111640100000000831117156100fd57600080fd5b91908080601f016020809104026020016040519081016040528093929190818152602001838380828437600081840152601f19601f82011690508083019250505050505050919291929080359060200190929190803590602001909291908035906020019092919050505061054c565b005b61019b6004803603602081101561018557600080fd5b810190808035906020019092919050505061065f565b6040518087815260200186815260200180602001858152602001848152602001838152602001828103825286818151815260200191508051906020019080838360005b838110156101f95780820151818401526020810190506101de565b50505050905090810190601f1680156102265780820380516001836020036101000a031916815260200191505b5097505050505050505060405180910390f35b6102656004803603602081101561024f57600080fd5b8101908080359060200190929190505050610733565b604051808781526020018060200180602001868152602001858152602001848152602001838103835288818151815260200191508051906020019080838360005b838110156102c15780820151818401526020810190506102a6565b50505050905090810190601f1680156102ee5780820380516001836020036101000a031916815260200191505b50838103825287818151815260200191508051906020019080838360005b8381101561032757808201518184015260208101905061030c565b50505050905090810190601f1680156103545780820380516001836020036101000a031916815260200191505b509850505050505050505060405180910390f35b61037061089f565b6040518082815260200191505060405180910390f35b6104fe600480360360c081101561039c57600080fd5b8101908080359060200190929190803590602001906401000000008111156103c357600080fd5b8201836020820111156103d557600080fd5b803590602001918460018302840111640100000000831117156103f757600080fd5b91908080601f016020809104026020016040519081016040528093929190818152602001838380828437600081840152601f19601f8201169050808301925050505050505091929192908035906020019064010000000081111561045a57600080fd5b82018360208201111561046c57600080fd5b8035906020019184600183028401116401000000008311171561048e57600080fd5b91908080601f016020809104026020016040519081016040528093929190818152602001838380828437600081840152601f19601f8201169050808301925050505050505091929192908035906020019092919080359060200190929190803590602001909291905050506108a5565b005b610508610a8d565b6040518082815260200191505060405180910390f35b61054a6004803603602081101561053457600080fd5b8101908080359060200190929190505050610a96565b005b6040518060c001604052808781526020018681526020018581526020018481526020018381526020018281525060026000888152602001908152602001600020600082015181600001556020820151816001015560408201518160020190805190602001906105bc929190610aa0565b50606082015181600301556080820151816004015560a08201518160050155905050600080905060148210156105f557600a905061060d565b6032821015610607576019905061060c565b603290505b5b6064818161061757fe5b046064858161062257fe5b0460016000898152602001908152602001600020600501540101600160008881526020019081526020016000206005018190555050505050505050565b6002602052806000526040600020600091509050806000015490806001015490806002018054600181600116156101000203166002900480601f0160208091040260200160405190810160405280929190818152602001828054600181600116156101000203166002900480156107175780601f106106ec57610100808354040283529160200191610717565b820191906000526020600020905b8154815290600101906020018083116106fa57829003601f168201915b5050505050908060030154908060040154908060050154905086565b6001602052806000526040600020600091509050806000015490806001018054600181600116156101000203166002900480601f0160208091040260200160405190810160405280929190818152602001828054600181600116156101000203166002900480156107e55780601f106107ba576101008083540402835291602001916107e5565b820191906000526020600020905b8154815290600101906020018083116107c857829003601f168201915b505050505090806002018054600181600116156101000203166002900480601f0160208091040260200160405190810160405280929190818152602001828054600181600116156101000203166002900480156108835780601f1061085857610100808354040283529160200191610883565b820191906000526020600020905b81548152906001019060200180831161086657829003601f168201915b5050505050908060030154908060040154908060050154905086565b60005481565b60008081548092919060010191905055506040518060c0016040528087815260200186815260200185815260200184815260200183815260200182815250600160008054815260200190815260200160002060008201518160000155602082015181600101908051906020019061091d929190610aa0565b50604082015181600201908051906020019061093a929190610aa0565b50606082015181600301556080820151816004015560a082015181600501559050507ff8e7352851ecb0a56bea73cf10b00d342dba56d70f759553e2e3eb7b24496689868686868686604051808781526020018060200180602001868152602001858152602001848152602001838103835288818151815260200191508051906020019080838360005b838110156109df5780820151818401526020810190506109c4565b50505050905090810190601f168015610a0c5780820380516001836020036101000a031916815260200191505b50838103825287818151815260200191508051906020019080838360005b83811015610a45578082015181840152602081019050610a2a565b50505050905090810190601f168015610a725780820380516001836020036101000a031916815260200191505b509850505050505050505060405180910390a1505050505050565b60008054905090565b8060008190555050565b828054600181600116156101000203166002900490600052602060002090601f016020900481019282601f10610ae157805160ff1916838001178555610b0f565b82800160010185558215610b0f579182015b82811115610b0e578251825591602001919060010190610af3565b5b509050610b1c9190610b20565b5090565b610b4291905b80821115610b3e576000816000905550600101610b26565b5090565b9056fea265627a7a723158202bc08447d2936023ec0486413065db3eada5465fa957303833d031544d61267f64736f6c63430005100032",
  "source": "// SPDX-License-Identifier: MIT\r\npragma solidity >=0.4.22 <0.9.0;\r\n\r\n\r\ncontract Transport{\r\n     uint public  Count;\r\n    struct Transporteur{\r\n        \r\n        uint cin;\r\n        string nom;\r\n        string prenom;\r\n        uint tel;\r\n        uint vehicle_number;\r\n        uint score;\r\n    }\r\n    struct Product {\r\n        uint id;\r\n        uint adress;\r\n        string name;\r\n        uint poids;\r\n        uint temperature;\r\n        uint distance;\r\n    }\r\n    event ajout(\r\n         uint cin,\r\n        string nom,\r\n        string prenom,\r\n        uint tel,\r\n        uint vehicle_number,\r\n        uint score\r\n\r\n    );\r\n    mapping (uint => Transporteur) public transporteurs;\r\n    mapping (uint => Product) public products;\r\n    function ajout_transporteur (uint cin,string memory nom,string memory prenom,uint tel,uint vehicle_number,uint score)public{\r\n        Count ++;\r\n        transporteurs[Count]=Transporteur(cin,nom,prenom,tel,vehicle_number,score);\r\n        emit ajout(cin, nom, prenom, tel, vehicle_number, score);\r\n    }\r\n    function get_count()public returns(uint){\r\n        return Count;\r\n    }\r\n    function set_count(uint a)public{\r\n        Count=a;\r\n    }\r\n    function tranporter (uint id,uint ad,string memory name, uint poids,uint temperature,uint distance)public{\r\n        products[id]=Product(id,ad,name,poids,temperature,distance);\r\n        uint point=0;\r\n        if(distance <20){\r\n             point = 10;\r\n        }\r\n        else if(distance <50){\r\n            point = 25;\r\n        }\r\n        else {\r\n            point =50;\r\n        }\r\n        \r\n        transporteurs[ad].score=transporteurs[ad].score+(poids/100)+(point/100);\r\n    }\r\n    /*function get_Transporter(uint ad)public  returns (string memory,string memory,uint,uint,uint){\r\n        return(transporteurs[ad].nom,transporteurs[ad].prenom,transporteurs[ad].tel,transporteurs[ad].vehicle_number,transporteurs[ad].score);\r\n    }*/\r\n}",
  "sourcePath": "C:/Users/walid/Blockchain_test/src/contracts/Transport.sol",
  "compiler": {
    "name": "solc",
    "version": "0.5.16+commit.9c3226ce.Emscripten.clang"
  },
  "schemaVersion": "3.4.1",
  "updatedAt": "2021-06-03T09:22:37.074Z",
  "networkType": "ethereum",
  "devdoc": {
    "methods": {}
  },
  "userdoc": {
    "methods": {}
  }
}