{
  "contractName": "Transport",
  "abi": [
    {
      "constant": true,
      "inputs": [
        {
          "name": "",
          "type": "uint256"
        }
      ],
      "name": "products",
      "outputs": [
        {
          "name": "id",
          "type": "uint256"
        },
        {
          "name": "adress",
          "type": "uint256"
        },
        {
          "name": "name",
          "type": "string"
        },
        {
          "name": "poids",
          "type": "uint256"
        },
        {
          "name": "temperature",
          "type": "uint256"
        },
        {
          "name": "distance",
          "type": "uint256"
        }
      ],
      "payable": false,
      "stateMutability": "view",
      "type": "function",
      "signature": "0x7acc0b20"
    },
    {
      "constant": true,
      "inputs": [
        {
          "name": "",
          "type": "uint256"
        }
      ],
      "name": "transporteurs",
      "outputs": [
        {
          "name": "cin",
          "type": "uint256"
        },
        {
          "name": "nom",
          "type": "string"
        },
        {
          "name": "prenom",
          "type": "string"
        },
        {
          "name": "tel",
          "type": "uint256"
        },
        {
          "name": "vehicle_number",
          "type": "uint256"
        },
        {
          "name": "score",
          "type": "uint256"
        }
      ],
      "payable": false,
      "stateMutability": "view",
      "type": "function",
      "signature": "0x84276083"
    },
    {
      "constant": true,
      "inputs": [],
      "name": "Count",
      "outputs": [
        {
          "name": "",
          "type": "uint256"
        }
      ],
      "payable": false,
      "stateMutability": "view",
      "type": "function",
      "signature": "0x93a8333e"
    },
    {
      "anonymous": false,
      "inputs": [
        {
          "indexed": false,
          "name": "cin",
          "type": "uint256"
        },
        {
          "indexed": false,
          "name": "nom",
          "type": "string"
        },
        {
          "indexed": false,
          "name": "prenom",
          "type": "string"
        },
        {
          "indexed": false,
          "name": "tel",
          "type": "uint256"
        },
        {
          "indexed": false,
          "name": "vehicle_number",
          "type": "uint256"
        },
        {
          "indexed": false,
          "name": "score",
          "type": "uint256"
        }
      ],
      "name": "ajout",
      "type": "event",
      "signature": "0xf8e7352851ecb0a56bea73cf10b00d342dba56d70f759553e2e3eb7b24496689"
    },
    {
      "constant": false,
      "inputs": [
        {
          "name": "cin",
          "type": "uint256"
        },
        {
          "name": "nom",
          "type": "string"
        },
        {
          "name": "prenom",
          "type": "string"
        },
        {
          "name": "tel",
          "type": "uint256"
        },
        {
          "name": "vehicle_number",
          "type": "uint256"
        },
        {
          "name": "score",
          "type": "uint256"
        }
      ],
      "name": "ajout_transporteur",
      "outputs": [],
      "payable": false,
      "stateMutability": "nonpayable",
      "type": "function",
      "signature": "0x98844f9e"
    },
    {
      "constant": false,
      "inputs": [],
      "name": "get_count",
      "outputs": [
        {
          "name": "",
          "type": "uint256"
        }
      ],
      "payable": false,
      "stateMutability": "nonpayable",
      "type": "function",
      "signature": "0xe7278e7f"
    },
    {
      "constant": false,
      "inputs": [
        {
          "name": "a",
          "type": "uint256"
        }
      ],
      "name": "set_count",
      "outputs": [],
      "payable": false,
      "stateMutability": "nonpayable",
      "type": "function",
      "signature": "0xf60170c2"
    },
    {
      "constant": false,
      "inputs": [
        {
          "name": "id",
          "type": "uint256"
        },
        {
          "name": "ad",
          "type": "uint256"
        },
        {
          "name": "name",
          "type": "string"
        },
        {
          "name": "poids",
          "type": "uint256"
        },
        {
          "name": "temperature",
          "type": "uint256"
        },
        {
          "name": "distance",
          "type": "uint256"
        }
      ],
      "name": "tranporter",
      "outputs": [],
      "payable": false,
      "stateMutability": "nonpayable",
      "type": "function",
      "signature": "0x018edfb6"
    }
  ],
  "bytecode": "0x608060405234801561001057600080fd5b50610bd8806100206000396000f3fe608060405260043610610083576000357c0100000000000000000000000000000000000000000000000000000000900463ffffffff168063018edfb6146100885780637acc0b2014610182578063842760831461025957806393a8333e1461039557806398844f9e146103c0578063e7278e7f14610547578063f60170c214610572575b600080fd5b34801561009457600080fd5b50610180600480360360c08110156100ab57600080fd5b810190808035906020019092919080359060200190929190803590602001906401000000008111156100dc57600080fd5b8201836020820111156100ee57600080fd5b8035906020019184600183028401116401000000008311171561011057600080fd5b91908080601f016020809104026020016040519081016040528093929190818152602001838380828437600081840152601f19601f8201169050808301925050505050505091929192908035906020019092919080359060200190929190803590602001909291905050506105ad565b005b34801561018e57600080fd5b506101bb600480360360208110156101a557600080fd5b81019080803590602001909291905050506106c5565b6040518087815260200186815260200180602001858152602001848152602001838152602001828103825286818151815260200191508051906020019080838360005b838110156102195780820151818401526020810190506101fe565b50505050905090810190601f1680156102465780820380516001836020036101000a031916815260200191505b5097505050505050505060405180910390f35b34801561026557600080fd5b506102926004803603602081101561027c57600080fd5b8101908080359060200190929190505050610799565b604051808781526020018060200180602001868152602001858152602001848152602001838103835288818151815260200191508051906020019080838360005b838110156102ee5780820151818401526020810190506102d3565b50505050905090810190601f16801561031b5780820380516001836020036101000a031916815260200191505b50838103825287818151815260200191508051906020019080838360005b83811015610354578082015181840152602081019050610339565b50505050905090810190601f1680156103815780820380516001836020036101000a031916815260200191505b509850505050505050505060405180910390f35b3480156103a157600080fd5b506103aa610905565b6040518082815260200191505060405180910390f35b3480156103cc57600080fd5b50610545600480360360c08110156103e357600080fd5b81019080803590602001909291908035906020019064010000000081111561040a57600080fd5b82018360208201111561041c57600080fd5b8035906020019184600183028401116401000000008311171561043e57600080fd5b91908080601f016020809104026020016040519081016040528093929190818152602001838380828437600081840152601f19601f820116905080830192505050505050509192919290803590602001906401000000008111156104a157600080fd5b8201836020820111156104b357600080fd5b803590602001918460018302840111640100000000831117156104d557600080fd5b91908080601f016020809104026020016040519081016040528093929190818152602001838380828437600081840152601f19601f82011690508083019250505050505050919291929080359060200190929190803590602001909291908035906020019092919050505061090b565b005b34801561055357600080fd5b5061055c610af4565b6040518082815260200191505060405180910390f35b34801561057e57600080fd5b506105ab6004803603602081101561059557600080fd5b8101908080359060200190929190505050610afd565b005b60c06040519081016040528087815260200186815260200185815260200184815260200183815260200182815250600260008881526020019081526020016000206000820151816000015560208201518160010155604082015181600201908051906020019061061e929190610b07565b50606082015181600301556080820151816004015560a082015181600501559050506000809050601482101561065757600a905061066f565b6032821015610669576019905061066e565b603290505b5b60648181151561067b57fe5b0460648581151561068857fe5b0460016000898152602001908152602001600020600501540101600160008881526020019081526020016000206005018190555050505050505050565b6002602052806000526040600020600091509050806000015490806001015490806002018054600181600116156101000203166002900480601f01602080910402602001604051908101604052809291908181526020018280546001816001161561010002031660029004801561077d5780601f106107525761010080835404028352916020019161077d565b820191906000526020600020905b81548152906001019060200180831161076057829003601f168201915b5050505050908060030154908060040154908060050154905086565b6001602052806000526040600020600091509050806000015490806001018054600181600116156101000203166002900480601f01602080910402602001604051908101604052809291908181526020018280546001816001161561010002031660029004801561084b5780601f106108205761010080835404028352916020019161084b565b820191906000526020600020905b81548152906001019060200180831161082e57829003601f168201915b505050505090806002018054600181600116156101000203166002900480601f0160208091040260200160405190810160405280929190818152602001828054600181600116156101000203166002900480156108e95780601f106108be576101008083540402835291602001916108e9565b820191906000526020600020905b8154815290600101906020018083116108cc57829003601f168201915b5050505050908060030154908060040154908060050154905086565b60005481565b600080815480929190600101919050555060c060405190810160405280878152602001868152602001858152602001848152602001838152602001828152506001600080548152602001908152602001600020600082015181600001556020820151816001019080519060200190610984929190610b07565b5060408201518160020190805190602001906109a1929190610b07565b50606082015181600301556080820151816004015560a082015181600501559050507ff8e7352851ecb0a56bea73cf10b00d342dba56d70f759553e2e3eb7b24496689868686868686604051808781526020018060200180602001868152602001858152602001848152602001838103835288818151815260200191508051906020019080838360005b83811015610a46578082015181840152602081019050610a2b565b50505050905090810190601f168015610a735780820380516001836020036101000a031916815260200191505b50838103825287818151815260200191508051906020019080838360005b83811015610aac578082015181840152602081019050610a91565b50505050905090810190601f168015610ad95780820380516001836020036101000a031916815260200191505b509850505050505050505060405180910390a1505050505050565b60008054905090565b8060008190555050565b828054600181600116156101000203166002900490600052602060002090601f016020900481019282601f10610b4857805160ff1916838001178555610b76565b82800160010185558215610b76579182015b82811115610b75578251825591602001919060010190610b5a565b5b509050610b839190610b87565b5090565b610ba991905b80821115610ba5576000816000905550600101610b8d565b5090565b9056fea165627a7a72305820508b8039805852fb4f40a9186cd15dfb0871189babc7f8eebc3c63a2c975e75d0029",
  "source": "// SPDX-License-Identifier: MIT\r\npragma solidity >=0.4.22 <0.9.0;\r\n\r\n\r\ncontract Transport{\r\n     uint public  Count;\r\n    struct Transporteur{\r\n        \r\n        uint cin;\r\n        string nom;\r\n        string prenom;\r\n        uint tel;\r\n        uint vehicle_number;\r\n        uint score;\r\n    }\r\n    struct Product {\r\n        uint id;\r\n        uint adress;\r\n        string name;\r\n        uint poids;\r\n        uint temperature;\r\n        uint distance;\r\n    }\r\n    event ajout(\r\n         uint cin,\r\n        string nom,\r\n        string prenom,\r\n        uint tel,\r\n        uint vehicle_number,\r\n        uint score\r\n\r\n    );\r\n    mapping (uint => Transporteur) public transporteurs;\r\n    mapping (uint => Product) public products;\r\n    function ajout_transporteur (uint cin,string memory nom,string memory prenom,uint tel,uint vehicle_number,uint score)public{\r\n        Count ++;\r\n        transporteurs[Count]=Transporteur(cin,nom,prenom,tel,vehicle_number,score);\r\n        emit ajout(cin, nom, prenom, tel, vehicle_number, score);\r\n    }\r\n    function get_count()public returns(uint){\r\n        return Count;\r\n    }\r\n    function set_count(uint a)public{\r\n        Count=a;\r\n    }\r\n    function tranporter (uint id,uint ad,string memory name, uint poids,uint temperature,uint distance)public{\r\n        products[id]=Product(id,ad,name,poids,temperature,distance);\r\n        uint point=0;\r\n        if(distance <20){\r\n             point = 10;\r\n        }\r\n        else if(distance <50){\r\n            point = 25;\r\n        }\r\n        else {\r\n            point =50;\r\n        }\r\n        \r\n        transporteurs[ad].score=transporteurs[ad].score+(poids/100)+(point/100);\r\n    }\r\n    /*function get_Transporter(uint ad)public  returns (string memory,string memory,uint,uint,uint){\r\n        return(transporteurs[ad].nom,transporteurs[ad].prenom,transporteurs[ad].tel,transporteurs[ad].vehicle_number,transporteurs[ad].score);\r\n    }*/\r\n}",
  "sourcePath": "C:/Users/walid/starter_kit/src/contracts/Transport.sol",
  "compiler": {
    "name": "solc",
    "version": "0.5.0+commit.1d4f565a.Emscripten.clang"
  },
  "schemaVersion": "3.0.1",
  "updatedAt": "2021-06-01T19:59:21.300Z",
  "devdoc": {
    "methods": {}
  },
  "userdoc": {
    "methods": {}
  }
}